{
  "abi": [
    {
      "type": "function",
      "name": "toEthSignedMessageHash",
      "inputs": [
        {
          "name": "hash",
          "type": "bytes32",
          "internalType": "bytes32"
        }
      ],
      "outputs": [
        {
          "name": "",
          "type": "bytes32",
          "internalType": "bytes32"
        }
      ],
      "stateMutability": "pure"
    }
  ],
  "bytecode": {
    "object": "0x60f6610038600b82828239805160001a607314602b57634e487b7160e01b600052600060045260246000fd5b30600052607381538281f3fe730000000000000000000000000000000000000000301460806040526004361060335760003560e01c8063918a15cf146038575b600080fd5b6096604336600460a8565b6040517f19457468657265756d205369676e6564204d6573736167653a0a3332000000006020820152603c8101829052600090605c01604051602081830303815290604052805190602001209050919050565b60405190815260200160405180910390f35b60006020828403121560b957600080fd5b503591905056fea26469706673582212200ce5f0e6a3c12ee6acc39f851c43c92ed623b8f06e5f0883e2431df59e61674064736f6c63430008190033",
    "linkReferences": {}
  },
  "methodIdentifiers": {
    "toEthSignedMessageHash(bytes32)": "918a15cf"
  },
  "id": 91
}