{
  "abi": [
    {
      "type": "constructor",
      "inputs": [
        {
          "name": "_name",
          "type": "string",
          "internalType": "string"
        },
        {
          "name": "_symbol",
          "type": "string",
          "internalType": "string"
        },
        {
          "name": "_signer",
          "type": "address",
          "internalType": "address"
        }
      ],
      "stateMutability": "nonpayable"
    },
    {
      "type": "function",
      "name": "approve",
      "inputs": [
        {
          "name": "to",
          "type": "address",
          "internalType": "address"
        },
        {
          "name": "tokenId",
          "type": "uint256",
          "internalType": "uint256"
        }
      ],
      "outputs": [],
      "stateMutability": "nonpayable"
    },
    {
      "type": "function",
      "name": "balanceOf",
      "inputs": [
        {
          "name": "owner",
          "type": "address",
          "internalType": "address"
        }
      ],
      "outputs": [
        {
          "name": "",
          "type": "uint256",
          "internalType": "uint256"
        }
      ],
      "stateMutability": "view"
    },
    {
      "type": "function",
      "name": "getApproved",
      "inputs": [
        {
          "name": "tokenId",
          "type": "uint256",
          "internalType": "uint256"
        }
      ],
      "outputs": [
        {
          "name": "",
          "type": "address",
          "internalType": "address"
        }
      ],
      "stateMutability": "view"
    },
    {
      "type": "function",
      "name": "getMessageHash",
      "inputs": [
        {
          "name": "_account",
          "type": "address",
          "internalType": "address"
        },
        {
          "name": "_tokenId",
          "type": "uint256",
          "internalType": "uint256"
        }
      ],
      "outputs": [
        {
          "name": "",
          "type": "bytes32",
          "internalType": "bytes32"
        }
      ],
      "stateMutability": "pure"
    },
    {
      "type": "function",
      "name": "isApprovedForAll",
      "inputs": [
        {
          "name": "owner",
          "type": "address",
          "internalType": "address"
        },
        {
          "name": "operator",
          "type": "address",
          "internalType": "address"
        }
      ],
      "outputs": [
        {
          "name": "",
          "type": "bool",
          "internalType": "bool"
        }
      ],
      "stateMutability": "view"
    },
    {
      "type": "function",
      "name": "mint",
      "inputs": [
        {
          "name": "_account",
          "type": "address",
          "internalType": "address"
        },
        {
          "name": "_tokenId",
          "type": "uint256",
          "internalType": "uint256"
        },
        {
          "name": "_signature",
          "type": "bytes",
          "internalType": "bytes"
        }
      ],
      "outputs": [],
      "stateMutability": "nonpayable"
    },
    {
      "type": "function",
      "name": "mintedAddress",
      "inputs": [
        {
          "name": "",
          "type": "address",
          "internalType": "address"
        }
      ],
      "outputs": [
        {
          "name": "",
          "type": "bool",
          "internalType": "bool"
        }
      ],
      "stateMutability": "view"
    },
    {
      "type": "function",
      "name": "name",
      "inputs": [],
      "outputs": [
        {
          "name": "",
          "type": "string",
          "internalType": "string"
        }
      ],
      "stateMutability": "view"
    },
    {
      "type": "function",
      "name": "ownerOf",
      "inputs": [
        {
          "name": "tokenId",
          "type": "uint256",
          "internalType": "uint256"
        }
      ],
      "outputs": [
        {
          "name": "owner",
          "type": "address",
          "internalType": "address"
        }
      ],
      "stateMutability": "view"
    },
    {
      "type": "function",
      "name": "safeTransferFrom",
      "inputs": [
        {
          "name": "from",
          "type": "address",
          "internalType": "address"
        },
        {
          "name": "to",
          "type": "address",
          "internalType": "address"
        },
        {
          "name": "tokenId",
          "type": "uint256",
          "internalType": "uint256"
        }
      ],
      "outputs": [],
      "stateMutability": "nonpayable"
    },
    {
      "type": "function",
      "name": "safeTransferFrom",
      "inputs": [
        {
          "name": "from",
          "type": "address",
          "internalType": "address"
        },
        {
          "name": "to",
          "type": "address",
          "internalType": "address"
        },
        {
          "name": "tokenId",
          "type": "uint256",
          "internalType": "uint256"
        },
        {
          "name": "_data",
          "type": "bytes",
          "internalType": "bytes"
        }
      ],
      "outputs": [],
      "stateMutability": "nonpayable"
    },
    {
      "type": "function",
      "name": "setApprovalForAll",
      "inputs": [
        {
          "name": "operator",
          "type": "address",
          "internalType": "address"
        },
        {
          "name": "approved",
          "type": "bool",
          "internalType": "bool"
        }
      ],
      "outputs": [],
      "stateMutability": "nonpayable"
    },
    {
      "type": "function",
      "name": "signer",
      "inputs": [],
      "outputs": [
        {
          "name": "",
          "type": "address",
          "internalType": "address"
        }
      ],
      "stateMutability": "view"
    },
    {
      "type": "function",
      "name": "supportsInterface",
      "inputs": [
        {
          "name": "interfaceId",
          "type": "bytes4",
          "internalType": "bytes4"
        }
      ],
      "outputs": [
        {
          "name": "",
          "type": "bool",
          "internalType": "bool"
        }
      ],
      "stateMutability": "pure"
    },
    {
      "type": "function",
      "name": "symbol",
      "inputs": [],
      "outputs": [
        {
          "name": "",
          "type": "string",
          "internalType": "string"
        }
      ],
      "stateMutability": "view"
    },
    {
      "type": "function",
      "name": "tokenURI",
      "inputs": [
        {
          "name": "tokenId",
          "type": "uint256",
          "internalType": "uint256"
        }
      ],
      "outputs": [
        {
          "name": "",
          "type": "string",
          "internalType": "string"
        }
      ],
      "stateMutability": "view"
    },
    {
      "type": "function",
      "name": "transferFrom",
      "inputs": [
        {
          "name": "from",
          "type": "address",
          "internalType": "address"
        },
        {
          "name": "to",
          "type": "address",
          "internalType": "address"
        },
        {
          "name": "tokenId",
          "type": "uint256",
          "internalType": "uint256"
        }
      ],
      "outputs": [],
      "stateMutability": "nonpayable"
    },
    {
      "type": "function",
      "name": "verify",
      "inputs": [
        {
          "name": "_msgHash",
          "type": "bytes32",
          "internalType": "bytes32"
        },
        {
          "name": "_signature",
          "type": "bytes",
          "internalType": "bytes"
        }
      ],
      "outputs": [
        {
          "name": "",
          "type": "bool",
          "internalType": "bool"
        }
      ],
      "stateMutability": "view"
    },
    {
      "type": "event",
      "name": "Approval",
      "inputs": [
        {
          "name": "owner",
          "type": "address",
          "indexed": true,
          "internalType": "address"
        },
        {
          "name": "approved",
          "type": "address",
          "indexed": true,
          "internalType": "address"
        },
        {
          "name": "tokenId",
          "type": "uint256",
          "indexed": true,
          "internalType": "uint256"
        }
      ],
      "anonymous": false
    },
    {
      "type": "event",
      "name": "ApprovalForAll",
      "inputs": [
        {
          "name": "owner",
          "type": "address",
          "indexed": true,
          "internalType": "address"
        },
        {
          "name": "operator",
          "type": "address",
          "indexed": true,
          "internalType": "address"
        },
        {
          "name": "approved",
          "type": "bool",
          "indexed": false,
          "internalType": "bool"
        }
      ],
      "anonymous": false
    },
    {
      "type": "event",
      "name": "Transfer",
      "inputs": [
        {
          "name": "from",
          "type": "address",
          "indexed": true,
          "internalType": "address"
        },
        {
          "name": "to",
          "type": "address",
          "indexed": true,
          "internalType": "address"
        },
        {
          "name": "tokenId",
          "type": "uint256",
          "indexed": true,
          "internalType": "uint256"
        }
      ],
      "anonymous": false
    }
  ],
  "bytecode": {
    "object": "0x60a060405234801561001057600080fd5b5060405161181038038061181083398101604081905261002f9161011f565b8282600061003d838261022f565b50600161004a828261022f565b5050506001600160a01b0316608052506102ee9050565b634e487b7160e01b600052604160045260246000fd5b600082601f83011261008857600080fd5b81516001600160401b03808211156100a2576100a2610061565b604051601f8301601f19908116603f011681019082821181831017156100ca576100ca610061565b81604052838152602092508660208588010111156100e757600080fd5b600091505b8382101561010957858201830151818301840152908201906100ec565b6000602085830101528094505050505092915050565b60008060006060848603121561013457600080fd5b83516001600160401b038082111561014b57600080fd5b61015787838801610077565b9450602086015191508082111561016d57600080fd5b5061017a86828701610077565b604086015190935090506001600160a01b038116811461019957600080fd5b809150509250925092565b600181811c908216806101b857607f821691505b6020821081036101d857634e487b7160e01b600052602260045260246000fd5b50919050565b601f82111561022a576000816000526020600020601f850160051c810160208610156102075750805b601f850160051c820191505b8181101561022657828155600101610213565b5050505b505050565b81516001600160401b0381111561024857610248610061565b61025c8161025684546101a4565b846101de565b602080601f83116001811461029157600084156102795750858301515b600019600386901b1c1916600185901b178555610226565b600085815260208120601f198616915b828110156102c0578886015182559484019460019091019084016102a1565b50858210156102de5787850151600019600388901b60f8161c191681555b5050505050600190811b01905550565b6080516115006103106000396000818161019d015261056a01526115006000f3fe608060405234801561001057600080fd5b50600436106101165760003560e01c8063630303c6116100a257806395d89b411161007157806395d89b4114610275578063a22cb4651461027d578063b88d4fde14610290578063c87b56dd146102a3578063e985e9c5146102b657600080fd5b8063630303c6146102195780636352211e1461023c57806370a082311461024f57806394d008ef1461026257600080fd5b8063238ac933116100e9578063238ac9331461019857806323b872dd146101bf578063258ae582146101d257806342842e0e146101e5578063512c91df146101f857600080fd5b806301ffc9a71461011b57806306fdde0314610143578063081812fc14610158578063095ea7b314610183575b600080fd5b61012e610129366004611082565b6102f2565b60405190151581526020015b60405180910390f35b61014b610344565b60405161013a91906110ef565b61016b610166366004611102565b6103d2565b6040516001600160a01b03909116815260200161013a565b610196610191366004611132565b61044d565b005b61016b7f000000000000000000000000000000000000000000000000000000000000000081565b6101966101cd36600461115c565b6104f2565b61012e6101e036600461123b565b610561565b6101966101f336600461115c565b610595565b61020b610206366004611132565b6105b0565b60405190815260200161013a565b61012e610227366004611282565b60066020526000908152604090205460ff1681565b61016b61024a366004611102565b6105f7565b61020b61025d366004611282565b610657565b61019661027036600461129d565b6106c2565b61014b610804565b61019661028b3660046112f4565b610811565b61019661029e366004611330565b61087d565b61014b6102b1366004611102565b6108e7565b61012e6102c4366004611398565b6001600160a01b03918216600090815260056020908152604080832093909416825291909152205460ff1690565b60006001600160e01b031982166380ac58cd60e01b148061032357506001600160e01b031982166301ffc9a760e01b145b8061033e57506001600160e01b03198216635b5e139f60e01b145b92915050565b60008054610351906113cb565b80601f016020809104026020016040519081016040528092919081815260200182805461037d906113cb565b80156103ca5780601f1061039f576101008083540402835291602001916103ca565b820191906000526020600020905b8154815290600101906020018083116103ad57829003601f168201915b505050505081565b6000818152600260205260408120546001600160a01b03166104315760405162461bcd60e51b81526020600482015260136024820152721d1bdad95b88191bd95cdb89dd08195e1a5cdd606a1b60448201526064015b60405180910390fd5b506000908152600460205260409020546001600160a01b031690565b6000818152600260205260409020546001600160a01b03163381148061049657506001600160a01b038116600090815260056020908152604080832033845290915290205460ff165b6104e25760405162461bcd60e51b815260206004820152601e60248201527f6e6f74206f776e6572206e6f7220617070726f76656420666f7220616c6c00006044820152606401610428565b6104ed8184846109a8565b505050565b60006104fd826105f7565b905061050a813384610a04565b61054f5760405162461bcd60e51b81526020600482015260166024820152751b9bdd081bdddb995c881b9bdc88185c1c1c9bdd995960521b6044820152606401610428565b61055b81858585610a77565b50505050565b600061058e83837f0000000000000000000000000000000000000000000000000000000000000000610bdf565b9392505050565b6104ed8383836040518060200160405280600081525061087d565b6040516bffffffffffffffffffffffff19606084901b1660208201526034810182905260009060540160405160208183030381529060405280519060200120905092915050565b6000818152600260205260409020546001600160a01b0316806106525760405162461bcd60e51b81526020600482015260136024820152721d1bdad95b88191bd95cdb89dd08195e1a5cdd606a1b6044820152606401610428565b919050565b60006001600160a01b0382166106a65760405162461bcd60e51b81526020600482015260146024820152736f776e6572203d207a65726f206164647265737360601b6044820152606401610428565b506001600160a01b031660009081526003602052604090205490565b60006106ce84846105b0565b90506000610729826040517f19457468657265756d205369676e6564204d6573736167653a0a3332000000006020820152603c8101829052600090605c01604051602081830303815290604052805190602001209050919050565b90506107358184610561565b6107755760405162461bcd60e51b8152602060048201526011602482015270496e76616c6964207369676e617475726560781b6044820152606401610428565b6001600160a01b03851660009081526006602052604090205460ff16156107d05760405162461bcd60e51b815260206004820152600f60248201526e416c7265616479206d696e7465642160881b6044820152606401610428565b6001600160a01b0385166000908152600660205260409020805460ff191660011790556107fd8585610c07565b5050505050565b60018054610351906113cb565b3360008181526005602090815260408083206001600160a01b03871680855290835292819020805460ff191686151590811790915590519081529192917f17307eab39ab6107e8899845ad3d59bd9653f200f220920489ca2b5937696c31910160405180910390a35050565b6000610888836105f7565b9050610895813385610a04565b6108da5760405162461bcd60e51b81526020600482015260166024820152751b9bdd081bdddb995c881b9bdc88185c1c1c9bdd995960521b6044820152606401610428565b6107fd8186868686610d37565b6000818152600260205260409020546060906001600160a01b03166109405760405162461bcd60e51b815260206004820152600f60248201526e151bdad95b88139bdd08115e1a5cdd608a1b6044820152606401610428565b600061095760408051602081019091526000815290565b90506000815111610977576040518060200160405280600081525061058e565b8061098184610d90565b604051602001610992929190611405565b6040516020818303038152906040529392505050565b60008181526004602052604080822080546001600160a01b0319166001600160a01b0386811691821790925591518493918716917f8c5be1e5ebec7d5bd14f71427d1e84f3dd0314c0f7b2291e5b200ac8c7c3b92591a4505050565b6000836001600160a01b0316836001600160a01b03161480610a3f57506000828152600460205260409020546001600160a01b038481169116145b80610a6f57506001600160a01b0380851660009081526005602090815260408083209387168352929052205460ff165b949350505050565b836001600160a01b0316836001600160a01b031614610ac45760405162461bcd60e51b81526020600482015260096024820152683737ba1037bbb732b960b91b6044820152606401610428565b6001600160a01b038216610b1a5760405162461bcd60e51b815260206004820152601c60248201527f7472616e7366657220746f20746865207a65726f2061646472657373000000006044820152606401610428565b610b26846000836109a8565b6001600160a01b0383166000908152600360205260408120805460019290610b4f90849061144a565b90915550506001600160a01b0382166000908152600360205260408120805460019290610b7d90849061145d565b909155505060008181526002602052604080822080546001600160a01b0319166001600160a01b0386811691821790925591518493918716917fddf252ad1be2c89b69c2b068fc378daa952ba7f163c4a11628f55a4df523b3ef91a450505050565b6000816001600160a01b0316610bf58585610e23565b6001600160a01b031614949350505050565b6001600160a01b038216610c545760405162461bcd60e51b81526020600482015260146024820152736d696e7420746f207a65726f206164647265737360601b6044820152606401610428565b6000818152600260205260409020546001600160a01b031615610cb05760405162461bcd60e51b81526020600482015260146024820152731d1bdad95b88185b1c9958591e481b5a5b9d195960621b6044820152606401610428565b6001600160a01b0382166000908152600360205260408120805460019290610cd990849061145d565b909155505060008181526002602052604080822080546001600160a01b0319166001600160a01b03861690811790915590518392907fddf252ad1be2c89b69c2b068fc378daa952ba7f163c4a11628f55a4df523b3ef908290a45050565b610d4385858585610a77565b610d4f84848484610eeb565b6107fd5760405162461bcd60e51b81526020600482015260126024820152713737ba1022a9219b9918a932b1b2b4bb32b960711b6044820152606401610428565b60606000610d9d83610f91565b600101905060008167ffffffffffffffff811115610dbd57610dbd611198565b6040519080825280601f01601f191660200182016040528015610de7576020820181803683370190505b5090508181016020015b600019016f181899199a1a9b1b9c1cb0b131b232b360811b600a86061a8153600a8504945084610df157509392505050565b60008151604114610e765760405162461bcd60e51b815260206004820152601860248201527f696e76616c6964207369676e6174757265206c656e67746800000000000000006044820152606401610428565b602082810151604080850151606080870151835160008082529681018086528a9052951a928501839052840183905260808401819052919260019060a0016020604051602081039080840390855afa158015610ed6573d6000803e3d6000fd5b5050604051601f190151979650505050505050565b60006001600160a01b0384163b15610f8657604051630a85bd0160e11b808252906001600160a01b0386169063150b7a0290610f319033908a9089908990600401611470565b6020604051808303816000875af1158015610f50573d6000803e3d6000fd5b505050506040513d601f19601f82011682018060405250810190610f7491906114ad565b6001600160e01b031916149050610a6f565b506001949350505050565b60008072184f03e93ff9f4daa797ed6e38ed64bf6a1f0160401b8310610fd05772184f03e93ff9f4daa797ed6e38ed64bf6a1f0160401b830492506040015b6d04ee2d6d415b85acef81000000008310610ffc576d04ee2d6d415b85acef8100000000830492506020015b662386f26fc10000831061101a57662386f26fc10000830492506010015b6305f5e1008310611032576305f5e100830492506008015b612710831061104657612710830492506004015b60648310611058576064830492506002015b600a831061033e5760010192915050565b6001600160e01b03198116811461107f57600080fd5b50565b60006020828403121561109457600080fd5b813561058e81611069565b60005b838110156110ba5781810151838201526020016110a2565b50506000910152565b600081518084526110db81602086016020860161109f565b601f01601f19169290920160200192915050565b60208152600061058e60208301846110c3565b60006020828403121561111457600080fd5b5035919050565b80356001600160a01b038116811461065257600080fd5b6000806040838503121561114557600080fd5b61114e8361111b565b946020939093013593505050565b60008060006060848603121561117157600080fd5b61117a8461111b565b92506111886020850161111b565b9150604084013590509250925092565b634e487b7160e01b600052604160045260246000fd5b600082601f8301126111bf57600080fd5b813567ffffffffffffffff808211156111da576111da611198565b604051601f8301601f19908116603f0116810190828211818310171561120257611202611198565b8160405283815286602085880101111561121b57600080fd5b836020870160208301376000602085830101528094505050505092915050565b6000806040838503121561124e57600080fd5b82359150602083013567ffffffffffffffff81111561126c57600080fd5b611278858286016111ae565b9150509250929050565b60006020828403121561129457600080fd5b61058e8261111b565b6000806000606084860312156112b257600080fd5b6112bb8461111b565b925060208401359150604084013567ffffffffffffffff8111156112de57600080fd5b6112ea868287016111ae565b9150509250925092565b6000806040838503121561130757600080fd5b6113108361111b565b91506020830135801515811461132557600080fd5b809150509250929050565b6000806000806080858703121561134657600080fd5b61134f8561111b565b935061135d6020860161111b565b925060408501359150606085013567ffffffffffffffff81111561138057600080fd5b61138c878288016111ae565b91505092959194509250565b600080604083850312156113ab57600080fd5b6113b48361111b565b91506113c26020840161111b565b90509250929050565b600181811c908216806113df57607f821691505b6020821081036113ff57634e487b7160e01b600052602260045260246000fd5b50919050565b6000835161141781846020880161109f565b83519083019061142b81836020880161109f565b01949350505050565b634e487b7160e01b600052601160045260246000fd5b8181038181111561033e5761033e611434565b8082018082111561033e5761033e611434565b6001600160a01b03858116825284166020820152604081018390526080606082018190526000906114a3908301846110c3565b9695505050505050565b6000602082840312156114bf57600080fd5b815161058e8161106956fea26469706673582212200704b7a652375b1142dfb5300d0f902e7adb04e9253be67d990e9535600117aa64736f6c63430008190033",
    "linkReferences": {}
  },
  "methodIdentifiers": {
    "approve(address,uint256)": "095ea7b3",
    "balanceOf(address)": "70a08231",
    "getApproved(uint256)": "081812fc",
    "getMessageHash(address,uint256)": "512c91df",
    "isApprovedForAll(address,address)": "e985e9c5",
    "mint(address,uint256,bytes)": "94d008ef",
    "mintedAddress(address)": "630303c6",
    "name()": "06fdde03",
    "ownerOf(uint256)": "6352211e",
    "safeTransferFrom(address,address,uint256)": "42842e0e",
    "safeTransferFrom(address,address,uint256,bytes)": "b88d4fde",
    "setApprovalForAll(address,bool)": "a22cb465",
    "signer()": "238ac933",
    "supportsInterface(bytes4)": "01ffc9a7",
    "symbol()": "95d89b41",
    "tokenURI(uint256)": "c87b56dd",
    "transferFrom(address,address,uint256)": "23b872dd",
    "verify(bytes32,bytes)": "258ae582"
  },
  "id": 91
}